{
  "contractName": "CertificateGeneration",
  "abi": [
    {
      "inputs": [],
      "stateMutability": "nonpayable",
      "type": "constructor"
    },
    {
      "anonymous": false,
      "inputs": [
        {
          "indexed": true,
          "internalType": "address",
          "name": "Recipient",
          "type": "address"
        },
        {
          "indexed": false,
          "internalType": "string",
          "name": "RecipientName",
          "type": "string"
        },
        {
          "indexed": false,
          "internalType": "string",
          "name": "CourseName",
          "type": "string"
        },
        {
          "indexed": false,
          "internalType": "string",
          "name": "IssuedBy",
          "type": "string"
        },
        {
          "indexed": false,
          "internalType": "uint256",
          "name": "CompletionDate",
          "type": "uint256"
        }
      ],
      "name": "CertificateIssued",
      "type": "event"
    },
    {
      "inputs": [
        {
          "internalType": "address",
          "name": "",
          "type": "address"
        }
      ],
      "name": "certificates",
      "outputs": [
        {
          "internalType": "string",
          "name": "RecipientName",
          "type": "string"
        },
        {
          "internalType": "string",
          "name": "CourseName",
          "type": "string"
        },
        {
          "internalType": "string",
          "name": "IssuedBy",
          "type": "string"
        },
        {
          "internalType": "uint256",
          "name": "CompletionDate",
          "type": "uint256"
        },
        {
          "internalType": "bool",
          "name": "Issued",
          "type": "bool"
        }
      ],
      "stateMutability": "view",
      "type": "function",
      "constant": true
    },
    {
      "inputs": [],
      "name": "owner",
      "outputs": [
        {
          "internalType": "address",
          "name": "",
          "type": "address"
        }
      ],
      "stateMutability": "view",
      "type": "function",
      "constant": true
    },
    {
      "inputs": [],
      "name": "isOwner",
      "outputs": [
        {
          "internalType": "bool",
          "name": "",
          "type": "bool"
        }
      ],
      "stateMutability": "view",
      "type": "function",
      "constant": true
    },
    {
      "inputs": [
        {
          "internalType": "address",
          "name": "Recipient",
          "type": "address"
        },
        {
          "internalType": "string",
          "name": "RecipientName",
          "type": "string"
        },
        {
          "internalType": "string",
          "name": "CourseName",
          "type": "string"
        },
        {
          "internalType": "string",
          "name": "IssuedBy",
          "type": "string"
        },
        {
          "internalType": "uint256",
          "name": "CompletionDate",
          "type": "uint256"
        }
      ],
      "name": "GenerateCertificate",
      "outputs": [],
      "stateMutability": "nonpayable",
      "type": "function"
    },
    {
      "inputs": [
        {
          "internalType": "address",
          "name": "Recipient",
          "type": "address"
        },
        {
          "internalType": "string",
          "name": "RecipientName",
          "type": "string"
        },
        {
          "internalType": "string",
          "name": "CourseName",
          "type": "string"
        },
        {
          "internalType": "string",
          "name": "IssuedBy",
          "type": "string"
        },
        {
          "internalType": "uint256",
          "name": "CompletionDate",
          "type": "uint256"
        }
      ],
      "name": "VerifyCertificate",
      "outputs": [
        {
          "internalType": "bool",
          "name": "",
          "type": "bool"
        }
      ],
      "stateMutability": "view",
      "type": "function",
      "constant": true
    }
  ],
  "bytecode": "0x608060405234801561001057600080fd5b5033600160006101000a81548173ffffffffffffffffffffffffffffffffffffffff021916908373ffffffffffffffffffffffffffffffffffffffff1602179055506111d1806100616000396000f3fe608060405234801561001057600080fd5b50600436106100565760003560e01c806216e5261461005b578063073328491461008f57806381c7a8ff146100bf5780638da5cb5b146100db5780638f32d59b146100f9575b600080fd5b61007560048036038101906100709190610944565b610117565b604051610086959493929190610a35565b60405180910390f35b6100a960048036038101906100a49190610bfe565b6102f2565b6040516100b69190610ccd565b60405180910390f35b6100d960048036038101906100d49190610bfe565b61064c565b005b6100e3610854565b6040516100f09190610cf7565b60405180910390f35b61010161087a565b60405161010e9190610ccd565b60405180910390f35b600060205280600052604060002060009150905080600001805461013a90610d41565b80601f016020809104026020016040519081016040528092919081815260200182805461016690610d41565b80156101b35780601f10610188576101008083540402835291602001916101b3565b820191906000526020600020905b81548152906001019060200180831161019657829003601f168201915b5050505050908060010180546101c890610d41565b80601f01602080910402602001604051908101604052809291908181526020018280546101f490610d41565b80156102415780601f1061021657610100808354040283529160200191610241565b820191906000526020600020905b81548152906001019060200180831161022457829003601f168201915b50505050509080600201805461025690610d41565b80601f016020809104026020016040519081016040528092919081815260200182805461028290610d41565b80156102cf5780601f106102a4576101008083540402835291602001916102cf565b820191906000526020600020905b8154815290600101906020018083116102b257829003601f168201915b5050505050908060030154908060040160009054906101000a900460ff16905085565b6000806000808873ffffffffffffffffffffffffffffffffffffffff1673ffffffffffffffffffffffffffffffffffffffff1681526020019081526020016000206040518060a001604052908160008201805461034e90610d41565b80601f016020809104026020016040519081016040528092919081815260200182805461037a90610d41565b80156103c75780601f1061039c576101008083540402835291602001916103c7565b820191906000526020600020905b8154815290600101906020018083116103aa57829003601f168201915b505050505081526020016001820180546103e090610d41565b80601f016020809104026020016040519081016040528092919081815260200182805461040c90610d41565b80156104595780601f1061042e57610100808354040283529160200191610459565b820191906000526020600020905b81548152906001019060200180831161043c57829003601f168201915b5050505050815260200160028201805461047290610d41565b80601f016020809104026020016040519081016040528092919081815260200182805461049e90610d41565b80156104eb5780601f106104c0576101008083540402835291602001916104eb565b820191906000526020600020905b8154815290600101906020018083116104ce57829003601f168201915b50505050508152602001600382015481526020016004820160009054906101000a900460ff16151515158152505090508060800151801561057b5750856040516020016105389190610dae565b6040516020818303038152906040528051906020012081600001516040516020016105639190610dae565b60405160208183030381529060405280519060200120145b80156105d65750846040516020016105939190610dae565b6040516020818303038152906040528051906020012081602001516040516020016105be9190610dae565b60405160208183030381529060405280519060200120145b80156106315750836040516020016105ee9190610dae565b6040516020818303038152906040528051906020012081604001516040516020016106199190610dae565b60405160208183030381529060405280519060200120145b80156106405750828160600151145b91505095945050505050565b61065461087a565b610693576040517f08c379a000000000000000000000000000000000000000000000000000000000815260040161068a90610e37565b60405180910390fd5b6000808673ffffffffffffffffffffffffffffffffffffffff1673ffffffffffffffffffffffffffffffffffffffff16815260200190815260200160002060040160009054906101000a900460ff1615610722576040517f08c379a000000000000000000000000000000000000000000000000000000000815260040161071990610ea3565b60405180910390fd5b6040518060a00160405280858152602001848152602001838152602001828152602001600115158152506000808773ffffffffffffffffffffffffffffffffffffffff1673ffffffffffffffffffffffffffffffffffffffff168152602001908152602001600020600082015181600001908161079f919061106f565b5060208201518160010190816107b5919061106f565b5060408201518160020190816107cb919061106f565b506060820151816003015560808201518160040160006101000a81548160ff0219169083151502179055509050508473ffffffffffffffffffffffffffffffffffffffff167f61f81fcd7d5ae36d0818d975b8fe3180525a33a3c46e4d22e3abce3b6e088c6b858585856040516108459493929190611141565b60405180910390a25050505050565b600160009054906101000a900473ffffffffffffffffffffffffffffffffffffffff1681565b6000600160009054906101000a900473ffffffffffffffffffffffffffffffffffffffff1673ffffffffffffffffffffffffffffffffffffffff163373ffffffffffffffffffffffffffffffffffffffff1614905090565b6000604051905090565b600080fd5b600080fd5b600073ffffffffffffffffffffffffffffffffffffffff82169050919050565b6000610911826108e6565b9050919050565b61092181610906565b811461092c57600080fd5b50565b60008135905061093e81610918565b92915050565b60006020828403121561095a576109596108dc565b5b60006109688482850161092f565b91505092915050565b600081519050919050565b600082825260208201905092915050565b60005b838110156109ab578082015181840152602081019050610990565b60008484015250505050565b6000601f19601f8301169050919050565b60006109d382610971565b6109dd818561097c565b93506109ed81856020860161098d565b6109f6816109b7565b840191505092915050565b6000819050919050565b610a1481610a01565b82525050565b60008115159050919050565b610a2f81610a1a565b82525050565b600060a0820190508181036000830152610a4f81886109c8565b90508181036020830152610a6381876109c8565b90508181036040830152610a7781866109c8565b9050610a866060830185610a0b565b610a936080830184610a26565b9695505050505050565b600080fd5b600080fd5b7f4e487b7100000000000000000000000000000000000000000000000000000000600052604160045260246000fd5b610adf826109b7565b810181811067ffffffffffffffff82111715610afe57610afd610aa7565b5b80604052505050565b6000610b116108d2565b9050610b1d8282610ad6565b919050565b600067ffffffffffffffff821115610b3d57610b3c610aa7565b5b610b46826109b7565b9050602081019050919050565b82818337600083830152505050565b6000610b75610b7084610b22565b610b07565b905082815260208101848484011115610b9157610b90610aa2565b5b610b9c848285610b53565b509392505050565b600082601f830112610bb957610bb8610a9d565b5b8135610bc9848260208601610b62565b91505092915050565b610bdb81610a01565b8114610be657600080fd5b50565b600081359050610bf881610bd2565b92915050565b600080600080600060a08688031215610c1a57610c196108dc565b5b6000610c288882890161092f565b955050602086013567ffffffffffffffff811115610c4957610c486108e1565b5b610c5588828901610ba4565b945050604086013567ffffffffffffffff811115610c7657610c756108e1565b5b610c8288828901610ba4565b935050606086013567ffffffffffffffff811115610ca357610ca26108e1565b5b610caf88828901610ba4565b9250506080610cc088828901610be9565b9150509295509295909350565b6000602082019050610ce26000830184610a26565b92915050565b610cf181610906565b82525050565b6000602082019050610d0c6000830184610ce8565b92915050565b7f4e487b7100000000000000000000000000000000000000000000000000000000600052602260045260246000fd5b60006002820490506001821680610d5957607f821691505b602082108103610d6c57610d6b610d12565b5b50919050565b600081905092915050565b6000610d8882610971565b610d928185610d72565b9350610da281856020860161098d565b80840191505092915050565b6000610dba8284610d7d565b915081905092915050565b7f4f6e6c79204f776e65722043616e20506572666f726d2054686973204f70657260008201527f6174696f6e000000000000000000000000000000000000000000000000000000602082015250565b6000610e2160258361097c565b9150610e2c82610dc5565b604082019050919050565b60006020820190508181036000830152610e5081610e14565b9050919050565b7f436572746966696361746520416c726561647920497373756564000000000000600082015250565b6000610e8d601a8361097c565b9150610e9882610e57565b602082019050919050565b60006020820190508181036000830152610ebc81610e80565b9050919050565b60008190508160005260206000209050919050565b60006020601f8301049050919050565b600082821b905092915050565b600060088302610f257fffffffffffffffffffffffffffffffffffffffffffffffffffffffffffffffff82610ee8565b610f2f8683610ee8565b95508019841693508086168417925050509392505050565b6000819050919050565b6000610f6c610f67610f6284610a01565b610f47565b610a01565b9050919050565b6000819050919050565b610f8683610f51565b610f9a610f9282610f73565b848454610ef5565b825550505050565b600090565b610faf610fa2565b610fba818484610f7d565b505050565b5b81811015610fde57610fd3600082610fa7565b600181019050610fc0565b5050565b601f82111561102357610ff481610ec3565b610ffd84610ed8565b8101602085101561100c578190505b61102061101885610ed8565b830182610fbf565b50505b505050565b600082821c905092915050565b600061104660001984600802611028565b1980831691505092915050565b600061105f8383611035565b9150826002028217905092915050565b61107882610971565b67ffffffffffffffff81111561109157611090610aa7565b5b61109b8254610d41565b6110a6828285610fe2565b600060209050601f8311600181146110d957600084156110c7578287015190505b6110d18582611053565b865550611139565b601f1984166110e786610ec3565b60005b8281101561110f578489015182556001820191506020850194506020810190506110ea565b8683101561112c5784890151611128601f891682611035565b8355505b6001600288020188555050505b505050505050565b6000608082019050818103600083015261115b81876109c8565b9050818103602083015261116f81866109c8565b9050818103604083015261118381856109c8565b90506111926060830184610a0b565b9594505050505056fea264697066735822122031c917fab6835c11ddbb50603384bafd96759dabbf1f1536e002f70049d0cdf564736f6c63430008110033",
  "immutableReferences": {},
  "source": "// SPDX-License-Identifier: MIT\r\npragma solidity ^0.8.0;\r\ncontract CertificateGeneration {\r\n    struct Certificate {\r\n        string RecipientName;\r\n        string CourseName;\r\n        string IssuedBy;\r\n        uint256 CompletionDate;\r\n        bool Issued;\r\n    }\r\n    mapping(address => Certificate) public certificates;\r\n    address public owner;\r\n    constructor() \r\n    {\r\n        owner = msg.sender;\r\n    }\r\n    modifier OnlyOwner() {\r\n        require(isOwner(), \"Only Owner Can Perform This Operation\");\r\n        _;\r\n    }\r\n    function isOwner() public view returns (bool) {\r\n        return msg.sender == owner;\r\n    }\r\n    event CertificateIssued(address indexed Recipient,string RecipientName,string CourseName,string IssuedBy,uint256 CompletionDate);\r\n    function GenerateCertificate(address Recipient,string memory RecipientName,string memory CourseName,string memory IssuedBy,uint256 CompletionDate) external OnlyOwner {\r\n        require(!certificates[Recipient].Issued, \"Certificate Already Issued\");\r\n        certificates[Recipient] = Certificate({\r\n            RecipientName: RecipientName,\r\n            CourseName: CourseName,\r\n            IssuedBy: IssuedBy,\r\n            CompletionDate: CompletionDate,\r\n            Issued: true\r\n        });\r\n        emit CertificateIssued(Recipient, RecipientName, CourseName, IssuedBy, CompletionDate);\r\n    }\r\n    function VerifyCertificate(address Recipient,string memory RecipientName,string memory CourseName,string memory IssuedBy,uint256 CompletionDate) external view returns (bool) {\r\n        Certificate memory certificate = certificates[Recipient];\r\n        return (\r\n           certificate.Issued && \r\n            keccak256(abi.encodePacked(certificate.RecipientName))==keccak256(abi.encodePacked(RecipientName)) &&\r\n            keccak256(abi.encodePacked(certificate.CourseName))==keccak256(abi.encodePacked(CourseName)) &&\r\n            keccak256(abi.encodePacked(certificate.IssuedBy))==keccak256(abi.encodePacked(IssuedBy)) &&\r\n            certificate.CompletionDate==CompletionDate\r\n        );\r\n    }\r\n}\r\n",
  "sourcePath": "C:\\Users\\HP\\Desktop\\Decentralized_Certificate\\contracts\\Certificate.sol",
  "compiler": {
    "name": "solc",
    "version": "0.8.17+commit.8df45f5f.Emscripten.clang"
  },
  "schemaVersion": "3.4.11",
  "updatedAt": "2023-12-09T09:46:21.659Z",
  "networkType": "ethereum",
  "devdoc": {
    "kind": "dev",
    "methods": {},
    "version": 1
  },
  "userdoc": {
    "kind": "user",
    "methods": {},
    "version": 1
  }
}